:02000002B0004C
:1040000000400B0014530B00000006000C000502DA
:0840100004010410000000008F
:0440180038500B0011
:10401C0009480A49884208B505D0094A824202D0AB
:10402C00121A00F051FF0748074A0021121A00F03B
:10403C0059FF014808BD00BF40E6032078520B0031
:10404C00B4E60320B4E60320EDE7032070B5074E79
:10405C00074C00F00BFEA41BA4080025AC4200D1B9
:10406C0070BD56F8043B98470135F7E730520B000A
:10407C0050520B0000F014B808B500F043F8BDE83E
:10408C00084000F0ABBD00F01BBA00F021BA00787C
:10409C00B0FA80F0400970470123037070470000AC
:1040AC0008B5084B0121188800F050FE064B012181
:1040BC00188800F04BFE054B01211888BDE808401C
:1040CC0000F044BEB4E6032044E6032040E603209F
:1040DC0038B5094B0D4601461888144600F047FECA
:1040EC00064B2946188800F042FE054B21461888DD
:1040FC00BDE8384000F03BBEB4E6032044E60320A4
:10410C0040E60320002208B51146FF20FFF7E0FF30
:10411C004FF4FA6000F0F4F900221046FF21FFF78B
:10412C00D7FF4FF4FA6000F0EBF900210846FF22AC
:10413C00FFF7CEFF4FF4FA6000F0E2F9FF210846DA
:10414C000022FFF7C5FF4FF4FA6000F0D9F9FF2207
:10415C0010460021FFF7BCFF4FF4FA6000F0D0F9D5
:10416C00FF2211460020FFF7B3FF4FF4FA6000F076
:10417C00C7F9FF2210461146FFF7AAFFBDE8084019
:10418C004FF4FA6000F0BCB908B5024B1B685B6CCD
:10419C00019308BD4802030008B5024B1B685B681D
:1041AC00019308BD1802030008B5024B1B685B693C
:1041BC00019308BD1802030008B5024B1B685B682D
:1041CC00019308BD2C02030008B5024B1B689B68C9
:1041DC00019308BD2C02030008B5024B1B68DB6879
:1041EC00019308BD2C02030008B5024B1B689B6AA7
:1041FC00019308BD2C02030008B5024B1B689B6F92
:10420C00019308BD2C02030008B5024B1B681B6A06
:10421C00019308BD2802030008B5024B1B685B6ABA
:10422C00019308BD2802030008B5024B1B689B6A6A
:10423C00019308BD2802030008B5024B1B68DB6A1A
:10424C00019308BD2802030008B5024B1B681B6BC9
:10425C00019308BD2802030008B5024B1B685B6B79
:10426C00019308BD2802030008B5024B1B681B6CA8
:10427C00019308BD2802030008B5024B1B685B695B
:10428C00019308BD6402030008B5024B1B689B68D0
:10429C00019308BD6802030008B5024B1B68DB687C
:1042AC00019308BD6802030008B5024B1B68DB696B
:1042BC00019308BD3002030008B5024B1B681B6A52
:1042CC00019308BD3002030008B5024B1B68DB6884
:1042DC00019308BD3C02030008B5024B1B681B6927
:1042EC00019308BD3C02030008B5024B1B685B69D7
:1042FC00019308BD3C02030008B5024B1B689B6987
:10430C00019308BD3C02030008B5024B1B68DB6936
:10431C00019308BD3C02030008B5024B1B681B6AE5
:10432C00019308BD3C02030008B5024B1B689B6A55
:10433C00019308BD3C02030008B5024B1B681B6CC3
:10434C00019308BD3C02030008B5024B1B681B68B7
:10435C00019308BD4C02030008B5024B1B681B6996
:10436C00019308BD4C02030008B5024B1B685B6946
:10437C00019308BD4C02030008B5024B1B689B69F6
:10438C00019308BD4C02030008B5024B1B68DB69A6
:10439C00019308BD4C02030008B5024B1B681B6A55
:1043AC00019308BD4C02030008B5024B1B685B6807
:1043BC00019308BD2002030008B5024B1B685B6922
:1043CC00019308BD2002030008B5034B1B68D3F80A
:1043DC008830019308BD00002002030008B5034B90
:1043EC001B68D3F89430019308BD00002002030031
:1043FC0008B5024B1B68DB6B019308BD440203003C
:10440C0008B5024B1B685B68019308BD40020300B2
:10441C0008B5024B1B689B68019308BD4002030062
:10442C0008B5024B1B68DB68019308BD4002030012
:10443C0008B5024B1B681B69019308BD40020300C1
:10444C0008B5024B1B685B69019308BD4002030071
:10445C0008B5024B1B689B69019308BD4002030021
:10446C0008B5024B1B68DB69019308BD40020300D1
:10447C0008B5024B1B681B6A019308BD4002030080
:10448C0008B5024B1B681B6B019308BD400203006F
:10449C0008B5024B1B685B6B019308BD400203001F
:1044AC0008B5024B1B681B6C019308BD400203004E
:1044BC0008B5024B1B685B6C019308BD40020300FE
:1044CC0008B5024B1B681B68019308BD1C02030056
:1044DC0008B5024B1B685B68019308BD1C02030006
:1044EC0008B5024B1B681B6C019308BD1C02030032
:1044FC0008B5024B1B685B6C019308BD1C020300E2
:10450C000021FFF759BF0000024800230360FFF7AA
:10451C003BBE00BFB8E60320002240681146FFF7FF
:10452C00A7BF002240681146FFF7B2BF40680022C7
:10453C00FFF7A6BF4068002281F00101FFF790BF92
:10454C00002340681A461946FFF782BF00234068D3
:10455C001A461946FFF774BF002240681146FFF750
:10456C0067BF002240681146FFF752BF4068002227
:10457C000221FFF755BF002340681A46FFF740BFE2
:10458C00024B03225A60024A1A607047BCE60320B1
:10459C0054500B007047F8B5064615460C468F185C
:1045AC00BC4206D0336814F8011B9B683046984710
:1045BC00F6E72846F8BD007C0022FFF725BE007CFC
:1045CC000021FFF729BE007C0021FFF72DBE007CE7
:1045DC000021FFF731BE007C0021FFF735BE10B57E
:1045EC0014210446FFF751FD204610BD38B5044692
:1045FC0015464FF47A730022C4E90123094B217448
:10460C00084623602946FFF72FFEBF3008D16B699F
:10461C00DB0705D56868FFF75BFFE868FFF758FF15
:10462C00204638BD90500B00704710B51821044639
:10463C00FFF72BFD204610BDF0B5037D062B8DB08A
:10464C000E4600F104074FF0000412D000F10805EB
:10465C0015F8011D0A22304600F043F9AF4204441C
:10466C0019D0002CF4D02E21304600F037F9044438
:10467C00EEE72F236A4639460A208DF80040FFF7F3
:10468C00FBFD684600F064FC33680246DB68694653
:10469C0030469847044620460DB0F0BD10B5054B8A
:1046AC000446112240F8043B002100F01BFC20467C
:1046BC0010BD00BFB8500B000346074A10B543F8B5
:1046CC00042B01F1100251F8044B43F8044B9142B6
:1046DC00F9D10A781A7010BDB8500B0010B59DF8BE
:1046EC00084044EA032343EA024242EA01610423FC
:1046FC004160037510BD000007B5064B0360CB7815
:10470C0000938B784A780978FFF7E8FF03B05DF8DF
:10471C0004FB00BFB8500B00014B024A1A607047F3
:10472C00C4E60320C4500B00002340681A46FFF770
:10473C0067BE406800220221FFF772BE002240686B
:10474C001146FFF765BE002240681146FFF770BEA8
:10475C00002340681A461946FFF772BE00234068D2
:10476C001A461946FFF774BE40680021FFF798BE41
:10477C0040680021FFF79CBE4068002281F00101D7
:10478C00FFF76EBE40680022FFF77ABE0022406839
:10479C001146FFF77DBE002240681146FFF768BE48
:1047AC002DE9F04395B014460D460746FFF776FF0A
:1047BC0000211C220DA8009100F094FB40230C93C7
:1047CC0020466B460CAA0021FFF766FD0446002824
:1047DC004BD1024601216868FFF72AFE0221804670
:1047EC0022466868FFF724FE009E81462146002E73
:1047FC003BD0002939D17368022B03D00A2B11D07E
:10480C00F669F4E7B8F1000FFAD0716906A8043123
:10481C0007ADFFF771FF0FCD3C1D0FC42B68237044
:10482C004146EDE7B9F1000FEAD07469102201A8F6
:10483C0000F058FB06238DF8143001AD04F1080389
:10484C001834186859682A4603C20833A34215461F
:10485C00F7D101A906A807ADFFF72EFF0FCD3C1D20
:10486C000FC42B6823704946CAE70098FFF70CFD6C
:10487C00384615B0BDE8F083024B034A1A6000229B
:10488C005A607047C8E60320D0500B00F8B50646B6
:10489C000D468F180024BD420CD0336815F8011B4F
:1048AC009B6830469847031E01DB1C44F3E7002C41
:1048BC0008BF1C462046F8BD13B50446084659B13E
:1048CC00019100F045FB23680199DB680246204604
:1048DC0002B0BDE81040184702B010BD03689B68D9
:1048EC00184730B58BB00023012A8DF8243098BFBF
:1048FC000A2209AC0D46B1FBF2F101FB125303F095
:10490C00FF03092B94BF30333733DBB2AA4204F8D0
:10491C00013DEFD92146FFF7CFFF0BB030BD0000B2
:10492C00014B00229A607047D0E6032010B5044674
:10493C0008462170FFF7B8FC00236360204610BDC9
:10494C00054B02221A60054B054A9A600020C3E908
:10495C000000FFF729BD00BFECE60320E0E60320D2
:10496C000000FFFF024B1A68024B1A60704700BF31
:10497C0048E60320F0E6032070474174704708B501
:10498C00007CFFF7D1FC20EAE07008BD08B5007C84
:10499C00FFF7A2FC20EAE07008BD08B5007CFFF729
:1049AC00ABFC40EAE07008BD08B5007CFFF79CFC4E
:1049BC0040EAE07008BD007CFFF7A6BC37B5457C2B
:1049CC0004462DB1207C03B0BDE83040FFF77CBC21
:1049DC00007C0191FFF7A8FC00280199F2DC284625
:1049EC0003B030BD10B514210446FFF74EFB204632
:1049FC0010BD000010B54FF47A73044608461146FA
:104A0C000022C4E90123044B236001232074637446
:104A1C00FFF792FC204610BD28510B0041747047E3
:104A2C007047704708B50021007CFFF7A5FC40EAF1
:104A3C00E07008BD08B50121007CFFF79DFC40EA41
:104A4C00E07008BD08B5007CFFF78EFC20EAE07032
:104A5C0008BD08B5007CFFF77FFC20EAE07008BDBC
:104A6C0013B50446007C0191FFF77EFC00280199E8
:104A7C0001DC607C20B1207CFFF786FC20EAE07032
:104A8C0002B010BD007CFFF787BC10B514210446A2
:104A9C00FFF7FBFA204610BD10B54FF47A730446AD
:104AAC0008460021C4E90113044B23600123207440
:104ABC0063741146FFF748FC204610BD58510B009B
:104ACC0010B514220446002100F00CFA204610BD4B
:104ADC0010B50F4C88B003A8FFF7F2FF2178BFF395
:104AEC005B8F11F001010FD120460191FFF7CFFA36
:104AFC00019948B103AA0748FFF7CEFF2046FFF7FC
:104B0C00CBFA054800F0DAF9024808B010BD00BF36
:104B1C00F4E60320F8E603202D4A0B00002240683F
:104B2C001146FFF785BC002240681146FFF7A0BC78
:104B3C00002240681146FFF7ABBC40680022FFF72B
:104B4C009FBC4068002281F00101FFF789BC002363
:104B5C0040681A461946FFF77BBC002340681A468A
:104B6C001946FFF76DBC002240681146FFF750BC98
:104B7C00406800220221FFF753BC002340681A460C
:104B8C00FFF73EBC024B04225A60024A1A6070477F
:104B9C000CE7032088510B00014B1860704700BFD5
:104BAC004CE6032008B50B4B43B1FFF791FF0368AC
:104BBC001B699847002801DDAFF30080064B43B119
:104BCC0000F056F903681B699847002801DDAFF324
:104BDC00008008BD000000000000000008B5FFF7D1
:104BEC00E1FFFFF7E1FA014B186008BD28E703204D
:104BFC000548064A064908B5121A00F065F9054B36
:104C0C00054A1A6008BD00BF00F4032004F4032019
:104C1C0074520B0000F403201E1C279A07B50023C6
:104C2C0000931A466FF07701FFF7D8FB03B05DF8DD
:104C3C0004FB000007B543880A2B08D0502B0BD17E
:104C4C00094B1B684BB103B05DF804EB1847FFF739
:104C5C00E5FF03B05DF804FB002300931A466FF0E8
:104C6C007701FFF7BBFBF4E718E7032010B51248F8
:104C7C000021FFF73DFC114B1A68114B9A42114B66
:104C8C000CBF012200221A7001D0FFF7B1FFFFF711
:104C9C0083FA044600F02EF90B4B13B12046AFF308
:104CAC00008000210848FFF7A3FBBDE8104007482F
:104CBC000021FFF789BB00BFA54B0B0000F40320BC
:104CCC001E1C279A14E7032000000000414C0B0027
:104CDC00232813B502D9002002B010BDA0F10B039C
:104CEC00022B1AD8174C2178BFF35B8F11F00101FE
:104CFC000BD120460191FFF7CAF9019928B112484E
:104D0C00FFF714FE2046FFF7C7F90F4B1878FFF793
:104D1C00D3FA0028DFD10120DEE7012809D800F002
:104D2C0067F80021007CFFF797FA80F00100C0B211
:104D3C00D2E709380128EED800F09AF8007CFFF78A
:104D4C00EBFAF2E71CE7032020E70320232838B511
:104D5C0004460D460AD8FF2908D0FFF7B9FF28B141
:104D6C0029462046BDE83840FFF72EBA38BD38B585
:104D7C0004460D46FFF7ACFFF0B104212046FFF7C7
:104D8C001BFA042805D1A9B22046BDE83840FFF72C
:104D9C002BBA02212046FFF70FFA02280CD120462D
:104DAC00FFF71AFA012801D0042805D1294620461C
:104DBC00BDE83840FFF720BA38BD704738B50A4B0C
:104DCC0003600123044643610849202000F074F875
:104DDC00202560600549A560284600F06DF8C4E9FF
:104DEC000305204638BD00BF18000100BC510B0064
:104DFC0030B50E4D2978BFF35B8F11F0010487B0ED
:104E0C0011D12846FFF743F968B16846FFF7D6FF82
:104E1C006A4621460648FFF7E9FB2846FFF73CF9AE
:104E2C00044800F04BF8024807B030BD2CE70320D3
:104E3C0030E70320C74D0B007047000038B504461F
:104E4C0014252A46002100F04DF8258040250749FD
:104E5C0025812846258200F02FF8044960602846F9
:104E6C0000F02AF8E060204638BD00BFBC510B00B2
:104E7C0030B50E4D2978BFF35B8F11F0010487B06C
:104E8C0011D12846FFF703F968B101A8FFF7D6FF47
:104E9C0001AA21460648FFF7ADFD2846FFF7FCF8AE
:104EAC00044800F00BF8024807B030BD44E703207B
:104EBC0048E70320454E0B00FFF7E5B800230146F9
:104ECC001A46184600F04CB80A44914200F1FF33E0
:104EDC0000D1704710B511F8014B03F8014F914206
:104EEC00F9D110BD02440346934200D1704703F838
:104EFC00011BF9E738B5104B1D68AB6B0446B3B911
:104F0C001820FFF7DDFA0246A86320B90B4B0C48BA
:104F1C004221FFF7E5FA0B490B4BC0E900130B4B91
:104F2C0083600B23838100210120C2E90401AB6B58
:104F3C0000221C615A6138BD4CE60320BD510B00A8
:104F4C00D4510B000E33CDAB34126DE6ECDE050004
:104F5C00034613F8012B002AFBD1181A01387047AD
:104F6C002DE9F843DFF8B8800646D8F800001F4654
:104F7C000D46914600F056F8254B1C6834B9254C6B
:104F8C001C60254B13B11B68C4F8883063681F2B59
:104F9C0007DDD8F8000000F047F84FF0FF30BDE80F
:104FAC00F8834EB3D4F8880088B91C4B23B9D8F8D1
:104FBC00000000F038F8F0E74FF48470FFF780FA47
:104FCC000028F4D00023C0E94033C4F8880063689B
:104FDC0040F8239001229A4000EB8301D0F8003175
:104FEC001343C0F80031022EC1F8807002BFD0F814
:104FFC0004311343C0F804316368D8F800005A1C1C
:10500C000233626044F8235000F00EF80020C6E72B
:10501C00E8E703205CE7032000000000CD440B0010
:10502C00B0E6032070477047704700001D400B002E
:10503C0059400B0081400B0085400B000000000024
:10504C00000000000000000083450B0079450B00B8
:10505C006F450B0065450B0059450B004D450B008A
:10506C0075470B007D470B0041450B0039450B0084
:10507C002F450B0025450B00AD470B000000000031
:10508C0000000000A1450B00EB450B00C3450B00D5
:10509C00A3450B00CB450B00D3450B00DB450B00A8
:1050AC00E3450B00000000000000000045460B002B
:1050BC0035460B0037460B00617070000000000095
:1050CC000000000035470B003F470B0049470B0021
:1050DC0053470B005D470B0069470B0075470B00EE
:1050EC007D470B0085470B0091470B0099470B0040
:1050FC00A3470B00AD470B0025592D256D2D2564BD
:10510C005425483A254D3A2553257A00617363742A
:10511C00696D6500000000000000000085490B006F
:10512C00F1490B00C9490B0099480B0099490B0038
:10513C00B5490B00A7490B00C3490B0087490B006D
:10514C008B490B0000000000000000002F4A0B00F0
:10515C00974A0B006D4A0B0099480B005F4A0B00F5
:10516C00314A0B00414A0B00914A0B00514A0B008B
:10517C00294A0B000000000000000000874B0B00C8
:10518C007D4B0B00734B0B00294B0B00674B0B003B
:10519C005B4B0B0075470B007D470B004F4B0B0017
:1051AC00474B0B003D4B0B00334B0B00AD470B003B
:1051BC00005245454E54206D616C6C6F63207375C5
:1051CC0063636565646564002F746D702F6A656E2A
:1051DC006B696E732D4743432D31302D70697065AB
:1051EC006C696E652D34385F323032303131323487
:1051FC005F313630363138303633392F7372632F96
:10520C006E65776C69622F6E65776C69622F6C695D
:10521C0062632F7374646C69622F72616E642E63A7
:10522C000000000015450B008D450B0025470B00B9
:10523C0085480B002D490B004D490B0071490B00A3
:04524C00914B0B0077
:10525000040000001400000003000000474E550049
:105260007A0AD4F99FE6187A95D1C0668200AD8299
:04527000ED980DEDBB
:045274000000000036
:10527800020000000100000018510B0050E6032056
:105288000000000000000000000000000000000016
:105298000000000000000000000000000000000006
:1052A80000000000000000000000000000000000F6
:1052B80000000000000000000000000000000000E6
:1052C80000000000000000000000000000000000D6
:1052D80000000000000000000000000000000000C6
:0452E800ECE70320CC
:1052EC00FFFFFFFF00000102030405060708090A7F
:1052FC000B0C0D0E0F101112131415161718191A7A
:08530C001B1C1D1E1F202800C0
:045314007856341281
:04000003B000401CED
:00000001FF
