:02000002B0004C
:1040000000400B0012530B00000006000C000502DC
:084010000401B41400000000DB
:0440180030500B0019
:10401C00034613F8012B002AFBD1181A01387047FC
:10402C0009480A49884208B505D0094A824202D09B
:10403C00121A00F04DFF0748074A0021121A00F02F
:10404C0055FF014808BD00BF34E6032070520B0039
:10405C00A8E60320A8E60320F0E7032070B5074E7E
:10406C00074C00F007FEA41BA4080025AC4200D1AD
:10407C0070BD56F8043B98470135F7E728520B0002
:10408C004C520B0000F022B808B500F037F8BDE830
:10409C00084000F0A7BD00F017BA00F01DBA007878
:1040AC00B0FA80F04009704701230370704708B5DF
:1040BC00FF21002000F05FFE0021012000F05BFEDC
:1040CC00BDE808400021022000F055BE08B5084BA1
:1040DC000121188800F03EFE064B0121188800F0E3
:1040EC0039FE054B01211888BDE8084000F032BEAE
:1040FC00B4E6032038E6032034E6032008B5FFF7C6
:10410C00D6FF4FF4FA6000F0FFF9FFF7D0FF4FF441
:10411C00FA6000F0F9F9FFF7CAFF4FF4FA6000F00B
:10412C00F3F9FFF7C4FF4FF4FA6000F0EDF9FFF775
:10413C00BEFF4FF4FA6000F0E7F9FFF7B8FF4FF459
:10414C00FA6000F0E1F9FFF7B2FFBDE808404FF468
:10415C00FA6000F0D9B9000010B5074B074A9A6015
:10416C000024C3E90044032000F01AF92146012081
:10417C00BDE8104000F024B9A8E603200000FFFFC2
:10418C0008B5024B1B685B6C019308BD4802030029
:10419C0008B5024B1B685B68019308BD180203004D
:1041AC0008B5024B1B685B69019308BD180203003C
:1041BC0008B5024B1B685B68019308BD2C02030019
:1041CC0008B5024B1B689B68019308BD2C020300C9
:1041DC0008B5024B1B68DB68019308BD2C02030079
:1041EC0008B5024B1B689B6A019308BD2C020300A7
:1041FC0008B5024B1B689B6F019308BD2C02030092
:10420C0008B5024B1B681B6A019308BD280203000A
:10421C0008B5024B1B685B6A019308BD28020300BA
:10422C0008B5024B1B689B6A019308BD280203006A
:10423C0008B5024B1B68DB6A019308BD280203001A
:10424C0008B5024B1B681B6B019308BD28020300C9
:10425C0008B5024B1B685B6B019308BD2802030079
:10426C0008B5024B1B681B6C019308BD28020300A8
:10427C0008B5024B1B685B69019308BD640203001F
:10428C0008B5024B1B689B68019308BD68020300CC
:10429C0008B5024B1B68DB68019308BD680203007C
:1042AC0008B5024B1B68DB69019308BD30020300A3
:1042BC0008B5024B1B681B6A019308BD3002030052
:1042CC0008B5024B1B68DB68019308BD3C02030078
:1042DC0008B5024B1B681B69019308BD3C02030027
:1042EC0008B5024B1B685B69019308BD3C020300D7
:1042FC0008B5024B1B689B69019308BD3C02030087
:10430C0008B5024B1B68DB69019308BD3C02030036
:10431C0008B5024B1B681B6A019308BD3C020300E5
:10432C0008B5024B1B689B6A019308BD3C02030055
:10433C0008B5024B1B681B6C019308BD3C020300C3
:10434C0008B5024B1B681B68019308BD4C020300A7
:10435C0008B5024B1B681B69019308BD4C02030096
:10436C0008B5024B1B685B69019308BD4C02030046
:10437C0008B5024B1B689B69019308BD4C020300F6
:10438C0008B5024B1B68DB69019308BD4C020300A6
:10439C0008B5024B1B681B6A019308BD4C02030055
:1043AC0008B5024B1B685B68019308BD2002030033
:1043BC0008B5024B1B685B69019308BD2002030022
:1043CC0008B5024B1B68DB6A019308BD2002030091
:1043DC0008B5034B1B68D3F88830019308BD000067
:1043EC002002030008B5034B1B68D3F894300193EB
:1043FC0008BD00002002030008B5024B1B68DB6BF4
:10440C00019308BD4402030008B5024B1B685B68AE
:10441C00019308BD4002030008B5024B1B689B6862
:10442C00019308BD4002030008B5024B1B68DB6812
:10443C00019308BD4002030008B5024B1B681B69C1
:10444C00019308BD4002030008B5024B1B685B6971
:10445C00019308BD4002030008B5024B1B689B6921
:10446C00019308BD4002030008B5024B1B68DB69D1
:10447C00019308BD4002030008B5024B1B681B6A80
:10448C00019308BD4002030008B5024B1B681B6B6F
:10449C00019308BD4002030008B5024B1B685B6B1F
:1044AC00019308BD4002030008B5024B1B681B6C4E
:1044BC00019308BD4002030008B5024B1B685B6CFE
:1044CC00019308BD4002030008B5024B1B681B6832
:1044DC00019308BD1C02030008B5024B1B685B6806
:1044EC00019308BD1C02030008B5024B1B681B6C32
:1044FC00019308BD1C02030008B5024B1B685B6CE2
:10450C00019308BD1C0203000021FFF751BF0000FE
:10451C00024800230360FFF733BE00BFB8E6032058
:10452C00002240681146FFF7A7BF002240681146E1
:10453C00FFF7B2BF40680022FFF7A6BF4068002219
:10454C0081F00101FFF790BF002340681A4619461D
:10455C00FFF782BF002340681A461946FFF774BF65
:10456C00002240681146FFF767BF002240681146E1
:10457C00FFF752BF406800220221FFF755BF00230E
:10458C0040681A46FFF740BF024B03225A60024AAA
:10459C001A607047BCE603204C500B007047F8B50E
:1045AC00064615460C468F18BC4206D0336814F8E4
:1045BC00011B9B6830469847F6E72846F8BD007CFF
:1045CC000022FFF71DBE007C0021FFF721BE007CFE
:1045DC000021FFF725BE007C0021FFF729BE007CDF
:1045EC000021FFF72DBE10B514210446FFF755FD31
:1045FC00204610BD38B5044615464FF47A73002298
:10460C00C4E90123094B2174084623602946FFF7AE
:10461C0027FEBF3008D16B69DB0705D56868FFF74B
:10462C005BFFE868FFF758FF204638BD88500B0049
:10463C00704710B518210446FFF72FFD204610BD1A
:10464C00F0B5037D062B8DB00E4600F104074FF03C
:10465C00000412D000F1080515F8011D0A2230469D
:10466C0000F043F9AF42044419D0002CF4D02E21B1
:10467C00304600F037F90444EEE72F236A463946FA
:10468C000A208DF80040FFF7F3FD6846FFF7C0FCE9
:10469C0033680246DB686946304698470446204634
:1046AC000DB0F0BD10B5054B0446112240F8043B8B
:1046BC00002100F01BFC204610BD00BFB0500B00C9
:1046CC000346074A10B543F8042B01F1100251F8C8
:1046DC00044B43F8044B9142F9D10A781A7010BD7F
:1046EC00B0500B0010B59DF8084044EA032343EA90
:1046FC00024242EA016104234160037510BD0000CF
:10470C0007B5064B0360CB7800938B784A78097811
:10471C00FFF7E8FF03B05DF804FB00BFB0500B00DF
:10472C00014B024A1A607047C4E60320BC500B00D0
:10473C00002340681A46FFF767BE4068002202213A
:10474C00FFF772BE002240681146FFF765BE0022DB
:10475C0040681146FFF770BE002340681A461946A0
:10476C00FFF772BE002340681A461946FFF774BE65
:10477C0040680021FFF798BE40680021FFF79CBEFF
:10478C004068002281F00101FFF76EBE40680022F4
:10479C00FFF77ABE002240681146FFF77DBE00226B
:1047AC0040681146FFF768BE2DE9F04395B01446FA
:1047BC000D460746FFF776FF00211C220DA800913D
:1047CC0000F094FB40230C9320466B460CAA00216E
:1047DC00FFF75EFD044600284BD1024601216868B4
:1047EC00FFF72AFE0221804622466868FFF724FE66
:1047FC00009E81462146002E3BD0002939D173689A
:10480C00022B03D00A2B11D0F669F4E7B8F1000F94
:10481C00FAD0716906A8043107ADFFF771FF0FCD0F
:10482C003C1D0FC42B6823704146EDE7B9F1000F16
:10483C00EAD07469102201A800F058FB06238DF809
:10484C00143001AD04F108031834186859682A466D
:10485C0003C20833A3421546F7D101A906A807AD38
:10486C00FFF72EFF0FCD3C1D0FC42B68237049465C
:10487C00CAE70098FFF704FD384615B0BDE8F08391
:10488C00024B034A1A6000225A607047C8E60320A4
:10489C00C8500B00F8B506460D468F180024BD42D3
:1048AC000CD0336815F8011B9B6830469847031EE3
:1048BC0001DB1C44F3E7002C08BF1C462046F8BD66
:1048CC0013B50446084659B10191FFF7A1FB2368C3
:1048DC000199DB680246204602B0BDE8104018473B
:1048EC0002B010BD03689B68184730B58BB000232D
:1048FC00012A8DF8243098BF0A2209AC0D46B1FB71
:10490C00F2F101FB125303F0FF03092B94BF303378
:10491C003733DBB2AA4204F8013DEFD92146FFF749
:10492C00CFFF0BB030BD0000014B00229A607047E6
:10493C00D0E6032010B5044608462170FFF7B0FC02
:10494C0000236360204610BD054B02221A60054B04
:10495C00054A9A600020C3E90000FFF721BD00BFA3
:10496C00ECE60320E0E603200000FFFF024B1A6890
:10497C00024B1A60704700BF3CE60320F0E60320B0
:10498C0070474174704708B5007CFFF7C9FC20EAFA
:10499C00E07008BD08B5007CFFF79AFC20EAE070D7
:1049AC0008BD08B5007CFFF7A3FC40EAE07008BD29
:1049BC0008B5007CFFF794FC40EAE07008BD007C71
:1049CC00FFF79EBC37B5457C04462DB1207C03B067
:1049DC00BDE83040FFF774BC007C0191FFF7A0FCF0
:1049EC0000280199F2DC284603B030BD10B5142123
:1049FC000446FFF752FB204610BD000010B54FF4E3
:104A0C007A730446084611460022C4E90123044B7C
:104A1C002360012320746374FFF78AFC204610BDC9
:104A2C0020510B00417470477047704708B5002146
:104A3C00007CFFF79DFC40EAE07008BD08B5012141
:104A4C00007CFFF795FC40EAE07008BD08B5007CDF
:104A5C00FFF786FC20EAE07008BD08B5007CFFF784
:104A6C0077FC20EAE07008BD13B50446007C019188
:104A7C00FFF776FC0028019901DC607C20B1207CDA
:104A8C00FFF77EFC20EAE07002B010BD007CFFF75F
:104A9C007FBC10B514210446FFF7FFFA204610BD69
:104AAC0010B54FF47A73044608460021C4E901138B
:104ABC00044B23600123207463741146FFF740FC00
:104ACC00204610BD50510B0010B514220446002195
:104ADC0000F00CFA204610BD10B50F4C88B003A89E
:104AEC00FFF7F2FF2178BFF35B8F11F001010FD1BB
:104AFC0020460191FFF7D3FA019948B103AA074860
:104B0C00FFF7CEFF2046FFF7CFFA054800F0DAF9A1
:104B1C00024808B010BD00BFF4E60320F8E60320FD
:104B2C00354A0B00002240681146FFF785BC002275
:104B3C0040681146FFF7A0BC002240681146FFF701
:104B4C00ABBC40680022FFF79FBC4068002281F09C
:104B5C000101FFF789BC002340681A461946FFF78C
:104B6C007BBC002340681A461946FFF76DBC002237
:104B7C0040681146FFF750BC406800220221FFF745
:104B8C0053BC002340681A46FFF73EBC024B04227C
:104B9C005A60024A1A6070470CE7032080510B00E0
:104BAC00014B1860704700BF40E6032008B50B4B63
:104BBC0043B1FFF791FF03681B699847002801DD9B
:104BCC00AFF30080064B43B100F056F903681B6944
:104BDC009847002801DDAFF3008008BD00000000FD
:104BEC000000000008B5FFF7E1FFFFF7D9FA014B11
:104BFC00186008BD28E703200548064A064908B591
:104C0C00121A00F065F9054B054A1A6008BD00BF81
:104C1C0000F4032004F40320E4520B0000F40320FE
:104C2C001E1C279A07B5002300931A466FF07701D4
:104C3C00FFF7D8FB03B05DF804FB000007B5438811
:104C4C000A2B08D0502B0BD1094B1B684BB103B06E
:104C5C005DF804EB1847FFF7E5FF03B05DF804FBC4
:104C6C00002300931A466FF07701FFF7BBFBF4E7C4
:104C7C0018E7032010B512480021FFF73DFC114B3B
:104C8C001A68114B9A42114B0CBF012200221A7068
:104C9C0001D0FFF7B1FFFFF77BFA044600F02EF9C5
:104CAC000B4B13B12046AFF3008000210848FFF7EF
:104CBC00A3FBBDE8104007480021FFF789BB00BFEC
:104CCC00AD4B0B0000F403201E1C279A14E70320A5
:104CDC0000000000494C0B00232813B502D900201A
:104CEC0002B010BDA0F10B03022B1AD8174C21787F
:104CFC00BFF35B8F11F001010BD120460191FFF73F
:104D0C00CEF9019928B11248FFF714FE2046FFF79F
:104D1C00CBF90F4B1878FFF7CBFA0028DFD1012025
:104D2C00DEE7012809D800F067F80021007CFFF7C6
:104D3C008FFA80F00100C0B2D2E709380128EED812
:104D4C0000F09AF8007CFFF7E3FAF2E71CE7032087
:104D5C0020E70320232838B504460D460AD8FF293E
:104D6C0008D0FFF7B9FF28B129462046BDE83840E6
:104D7C00FFF726BA38BD38B504460D46FFF7ACFF31
:104D8C00F0B104212046FFF713FA042805D1A9B28B
:104D9C002046BDE83840FFF723BA02212046FFF732
:104DAC0007FA02280CD12046FFF712FA012801D08D
:104DBC00042805D129462046BDE83840FFF718BA2B
:104DCC0038BD704738B50A4B036001230446436174
:104DDC000849202000F074F8202560600549A56082
:104DEC00284600F06DF8C4E90305204638BD00BF25
:104DFC0018000100B4510B0030B50E4D2978BFF3EB
:104E0C005B8F11F0010487B011D12846FFF747F9E9
:104E1C0068B16846FFF7D6FF6A4621460648FFF799
:104E2C00E9FB2846FFF740F9044800F04BF802482C
:104E3C0007B030BD2CE7032030E70320CF4D0B002B
:104E4C007047000038B5044614252A46002100F0AE
:104E5C004DF825804025074925812846258200F0FC
:104E6C002FF804496060284600F02AF8E0602046DC
:104E7C0038BD00BFB4510B0030B50E4D2978BFF3CF
:104E8C005B8F11F0010487B011D12846FFF707F9A9
:104E9C0068B101A8FFF7D6FF01AA21460648FFF723
:104EAC00ADFD2846FFF700F9044800F00BF8024866
:104EBC0007B030BD44E7032048E703204D4E0B00FC
:104ECC00FFF7E9B8002301461A46184600F044B82B
:104EDC000A44914200F1FF3300D1704710B511F82C
:104EEC00014B03F8014F9142F9D110BD0244034626
:104EFC00934200D1704703F8011BF9E738B5104B0A
:104F0C001D68AB6B0446B3B91820FFF7DDFA0246F7
:104F1C00A86320B90B4B0C484221FFF7E5FA0B496B
:104F2C000B4BC0E900130B4B83600B2383810021D7
:104F3C000120C2E90401AB6B00221C615A6138BD2F
:104F4C0040E60320B5510B00CC510B000E33CDAB1A
:104F5C0034126DE6ECDE05002DE9F843DFF8B8807D
:104F6C000646D8F800001F460D46914600F056F84C
:104F7C00254B1C6834B9254C1C60254B13B11B68A0
:104F8C00C4F8883063681F2B07DDD8F8000000F0E8
:104F9C0047F84FF0FF30BDE8F8834EB3D4F88800E3
:104FAC0088B91C4B23B9D8F8000000F038F8F0E7AA
:104FBC004FF48470FFF788FA0028F4D00023C0E97E
:104FCC004033C4F88800636840F8239001229A406B
:104FDC0000EB8301D0F800311343C0F80031022EEE
:104FEC00C1F8807002BFD0F804311343C0F804310B
:104FFC006368D8F800005A1C0233626044F82350EE
:10500C0000F00EF80020C6E7E8E703205CE7032079
:10501C0000000000D5440B00A4E603207047704745
:10502C00704700002D400B0069400B0091400B00B5
:10503C0095400B0000000000000000000000000084
:10504C008B450B0081450B0077450B006D450B0024
:10505C0061450B0055450B007D470B0085470B0048
:10506C0049450B0041450B0037450B002D450B0006
:10507C00B5470B000000000000000000A9450B0024
:10508C00F3450B00CB450B00AB450B00D3450B0098
:10509C00DB450B00E3450B00EB450B00000000006B
:1050AC00000000004D460B003D460B003F460B0038
:1050BC006170700000000000000000003D470B0014
:1050CC0047470B0051470B005B470B0065470B0034
:1050DC0071470B007D470B0085470B008D470B007C
:1050EC0099470B00A1470B00AB470B00B5470B00D2
:1050FC0025592D256D2D25645425483A254D3A25E5
:10510C0053257A0061736374696D650000000000BB
:10511C00000000008D490B00F9490B00D1490B0030
:10512C00A1480B00A1490B00BD490B00AF490B0076
:10513C00CB490B008F490B0093490B00000000007A
:10514C0000000000374A0B009F4A0B00754A0B0009
:10515C00A1480B00674A0B00394A0B00494A0B0067
:10516C00994A0B00594A0B00314A0B000000000011
:10517C00000000008F4B0B00854B0B007B4B0B0092
:10518C00314B0B006F4B0B00634B0B007D470B003F
:10519C0085470B00574B0B004F4B0B00454B0B003F
:1051AC003B4B0B00B5470B00005245454E54206D50
:1051BC00616C6C6F63207375636365656465640013
:1051CC002F746D702F6A656E6B696E732D47434338
:1051DC002D31302D706970656C696E652D34385FBA
:1051EC0032303230313132345F3136303631383062
:1051FC003633392F7372632F6E65776C69622F6E3D
:10520C0065776C69622F6C6962632F7374646C6967
:10521C00622F72616E642E630000000065410B000A
:10522C001D450B0095450B002D470B008D480B00C1
:10523C0035490B0055490B0079490B00994B0B0074
:10524C00040000001400000003000000474E55004D
:10525C0024A300BE7DD63FE741BF42CC4E36768BB1
:04526C005F87F367FE
:10527000020000000100000010510B0044E6032072
:10528000000000000000000000000000000000001E
:10529000000000000000000000000000000000000E
:1052A00000000000000000000000000000000000FE
:1052B00000000000000000000000000000000000EE
:1052C00000000000000000000000000000000000DE
:1052D00000000000000000000000000000000000CE
:0452E000ECE70320D4
:0452E40000000000C6
:1052EE0000000102030405060708090A0B0C0D0E47
:1052FE000F101112131415161718191A1B1C1D1E38
:04530E001F20280034
:045312007856341283
:04000003B000401CED
:00000001FF
